{
  "_format": "hh-sol-artifact-1",
  "contractName": "CampaignFactory",
  "sourceName": "contracts/CampaignFactory.sol",
  "abi": [
    {
      "inputs": [],
      "name": "ReentrancyGuardReentrantCall",
      "type": "error"
    },
    {
      "anonymous": false,
      "inputs": [
        {
          "indexed": true,
          "internalType": "uint256",
          "name": "campaignId",
          "type": "uint256"
        },
        {
          "indexed": true,
          "internalType": "address",
          "name": "creator",
          "type": "address"
        },
        {
          "indexed": false,
          "internalType": "string",
          "name": "tokenName",
          "type": "string"
        },
        {
          "indexed": false,
          "internalType": "string",
          "name": "tokenSymbol",
          "type": "string"
        },
        {
          "indexed": false,
          "internalType": "uint256",
          "name": "goalAmount",
          "type": "uint256"
        },
        {
          "indexed": false,
          "internalType": "uint256",
          "name": "startTime",
          "type": "uint256"
        },
        {
          "indexed": false,
          "internalType": "uint256",
          "name": "endTime",
          "type": "uint256"
        }
      ],
      "name": "CampaignCreated",
      "type": "event"
    },
    {
      "anonymous": false,
      "inputs": [
        {
          "indexed": true,
          "internalType": "uint256",
          "name": "campaignId",
          "type": "uint256"
        },
        {
          "indexed": false,
          "internalType": "string",
          "name": "newCID",
          "type": "string"
        }
      ],
      "name": "CampaignMetadataUpdated",
      "type": "event"
    },
    {
      "anonymous": false,
      "inputs": [
        {
          "indexed": true,
          "internalType": "uint256",
          "name": "campaignId",
          "type": "uint256"
        },
        {
          "indexed": true,
          "internalType": "address",
          "name": "creator",
          "type": "address"
        },
        {
          "indexed": false,
          "internalType": "uint256",
          "name": "amount",
          "type": "uint256"
        }
      ],
      "name": "FundsWithdrawn",
      "type": "event"
    },
    {
      "anonymous": false,
      "inputs": [
        {
          "indexed": true,
          "internalType": "uint256",
          "name": "campaignId",
          "type": "uint256"
        },
        {
          "indexed": true,
          "internalType": "address",
          "name": "investor",
          "type": "address"
        },
        {
          "indexed": false,
          "internalType": "uint256",
          "name": "amountInvested",
          "type": "uint256"
        },
        {
          "indexed": false,
          "internalType": "uint256",
          "name": "tokensPurchased",
          "type": "uint256"
        }
      ],
      "name": "Invested",
      "type": "event"
    },
    {
      "anonymous": false,
      "inputs": [
        {
          "indexed": true,
          "internalType": "uint256",
          "name": "campaignId",
          "type": "uint256"
        },
        {
          "indexed": true,
          "internalType": "address",
          "name": "investor",
          "type": "address"
        },
        {
          "indexed": false,
          "internalType": "uint256",
          "name": "amountRefuned",
          "type": "uint256"
        },
        {
          "indexed": false,
          "internalType": "uint256",
          "name": "tokensBurned",
          "type": "uint256"
        }
      ],
      "name": "Refunded",
      "type": "event"
    },
    {
      "inputs": [
        {
          "internalType": "uint256",
          "name": "",
          "type": "uint256"
        }
      ],
      "name": "campaigns",
      "outputs": [
        {
          "internalType": "address",
          "name": "creator",
          "type": "address"
        },
        {
          "internalType": "uint256",
          "name": "goalAmount",
          "type": "uint256"
        },
        {
          "internalType": "uint256",
          "name": "startTime",
          "type": "uint256"
        },
        {
          "internalType": "uint256",
          "name": "endTime",
          "type": "uint256"
        },
        {
          "internalType": "uint256",
          "name": "totalTokenSupply",
          "type": "uint256"
        },
        {
          "internalType": "uint256",
          "name": "mintedSupply",
          "type": "uint256"
        },
        {
          "internalType": "uint256",
          "name": "pricePerToken",
          "type": "uint256"
        },
        {
          "internalType": "uint256",
          "name": "amountRaised",
          "type": "uint256"
        },
        {
          "internalType": "string",
          "name": "tokenName",
          "type": "string"
        },
        {
          "internalType": "string",
          "name": "tokenSymbol",
          "type": "string"
        },
        {
          "internalType": "address",
          "name": "tokenAddress",
          "type": "address"
        },
        {
          "internalType": "string",
          "name": "metadataCID",
          "type": "string"
        }
      ],
      "stateMutability": "view",
      "type": "function"
    },
    {
      "inputs": [
        {
          "internalType": "uint256",
          "name": "goalAmount",
          "type": "uint256"
        },
        {
          "internalType": "uint256",
          "name": "startTime",
          "type": "uint256"
        },
        {
          "internalType": "uint256",
          "name": "endTime",
          "type": "uint256"
        },
        {
          "internalType": "uint256",
          "name": "totalTokenSupply",
          "type": "uint256"
        },
        {
          "internalType": "string",
          "name": "tokenName",
          "type": "string"
        },
        {
          "internalType": "string",
          "name": "tokenSymbol",
          "type": "string"
        },
        {
          "internalType": "string",
          "name": "metadataCID",
          "type": "string"
        }
      ],
      "name": "createCampaign",
      "outputs": [
        {
          "internalType": "uint256",
          "name": "",
          "type": "uint256"
        }
      ],
      "stateMutability": "nonpayable",
      "type": "function"
    },
    {
      "inputs": [
        {
          "internalType": "uint256",
          "name": "campaignId",
          "type": "uint256"
        }
      ],
      "name": "getCampaign",
      "outputs": [
        {
          "components": [
            {
              "internalType": "address",
              "name": "creator",
              "type": "address"
            },
            {
              "internalType": "uint256",
              "name": "goalAmount",
              "type": "uint256"
            },
            {
              "internalType": "uint256",
              "name": "startTime",
              "type": "uint256"
            },
            {
              "internalType": "uint256",
              "name": "endTime",
              "type": "uint256"
            },
            {
              "internalType": "uint256",
              "name": "totalTokenSupply",
              "type": "uint256"
            },
            {
              "internalType": "uint256",
              "name": "mintedSupply",
              "type": "uint256"
            },
            {
              "internalType": "uint256",
              "name": "pricePerToken",
              "type": "uint256"
            },
            {
              "internalType": "uint256",
              "name": "amountRaised",
              "type": "uint256"
            },
            {
              "internalType": "string",
              "name": "tokenName",
              "type": "string"
            },
            {
              "internalType": "string",
              "name": "tokenSymbol",
              "type": "string"
            },
            {
              "internalType": "address",
              "name": "tokenAddress",
              "type": "address"
            },
            {
              "internalType": "string",
              "name": "metadataCID",
              "type": "string"
            }
          ],
          "internalType": "struct CampaignFactory.Campaign",
          "name": "",
          "type": "tuple"
        }
      ],
      "stateMutability": "view",
      "type": "function"
    },
    {
      "inputs": [
        {
          "internalType": "uint256",
          "name": "campaignId",
          "type": "uint256"
        }
      ],
      "name": "getStatus",
      "outputs": [
        {
          "internalType": "enum CampaignFactory.CampaignStatus",
          "name": "",
          "type": "uint8"
        }
      ],
      "stateMutability": "view",
      "type": "function"
    },
    {
      "inputs": [
        {
          "internalType": "uint256",
          "name": "campaignId",
          "type": "uint256"
        },
        {
          "internalType": "uint256",
          "name": "tokenAmount",
          "type": "uint256"
        }
      ],
      "name": "invest",
      "outputs": [],
      "stateMutability": "payable",
      "type": "function"
    },
    {
      "inputs": [
        {
          "internalType": "address",
          "name": "",
          "type": "address"
        },
        {
          "internalType": "uint256",
          "name": "",
          "type": "uint256"
        }
      ],
      "name": "investorInfo",
      "outputs": [
        {
          "internalType": "uint256",
          "name": "amountInvested",
          "type": "uint256"
        },
        {
          "internalType": "uint256",
          "name": "tokensPurchased",
          "type": "uint256"
        }
      ],
      "stateMutability": "view",
      "type": "function"
    },
    {
      "inputs": [],
      "name": "nextCampaignId",
      "outputs": [
        {
          "internalType": "uint256",
          "name": "",
          "type": "uint256"
        }
      ],
      "stateMutability": "view",
      "type": "function"
    },
    {
      "inputs": [
        {
          "internalType": "uint256",
          "name": "campaignId",
          "type": "uint256"
        }
      ],
      "name": "refund",
      "outputs": [],
      "stateMutability": "nonpayable",
      "type": "function"
    },
    {
      "inputs": [
        {
          "internalType": "uint256",
          "name": "campaignId",
          "type": "uint256"
        },
        {
          "internalType": "string",
          "name": "newCID",
          "type": "string"
        }
      ],
      "name": "updateCampaignMetadata",
      "outputs": [],
      "stateMutability": "nonpayable",
      "type": "function"
    },
    {
      "inputs": [
        {
          "internalType": "uint256",
          "name": "campaignId",
          "type": "uint256"
        }
      ],
      "name": "withdraw",
      "outputs": [],
      "stateMutability": "nonpayable",
      "type": "function"
    }
  ],
  "bytecode": "0x6080806040523461001b57600160005561265c90816100218239f35b600080fdfe608060405260043610156200001357600080fd5b6000803560e01c8063141961bc14620014725780631dda279b14620011c9578063278ecde11462000fca5780632e1a7d4d1462000de25780633d6859f21462000d8d5780635598f8cc1462000b935780635c622a0e1462000b485780637710003914620003e85780637903a75614620003c85763d87aa643146200009657600080fd5b6040366003190112620003c55760246004358135620000b4620017c6565b81845260206002815260408520620000cc84620017ea565b6004811015620003b2576001036200036e5760058101620000ef8482546200175f565b6004830154106200032a5760068201548085029085820414851517156200031557670de0b6b3a7640000900495863410620002d257908792918734116200024a575b5060078201620001438882546200175f565b9055620001528582546200175f565b90553382526003835260408220858352835260408220620001758782546200175f565b905533825260038352604082208583528352600160408320016200019b8582546200175f565b9055600a01546001600160a01b0316803b1562000246576040516340c10f1960e01b8152336004820152602481018590529082908290604490829084905af180156200023b576200021f575b50506040519384528301527f271dec505c61c970bdd791a963b7162d814edf6292f40c4beef2af1e48eea1e860403393a36001815580f35b6200022a90620015ac565b62000237578438620001e7565b8480fd5b6040513d84823e3d90fd5b5080fd5b90919250863403348111620002bf578880808093335af16200026b62001783565b50156200027c579087929162000131565b83601c6064926040519262461bcd60e51b845260048401528201527f526573756c743a20526566756e6420657863657373206661696c6564000000006044820152fd5b50634e487b7160e01b8852601160045287fd5b83601d6064926040519262461bcd60e51b845260048401528201527f526573756c743a20496e73756666696369656e74204554482073656e740000006044820152fd5b86634e487b7160e01b60005260116004526000fd5b60405162461bcd60e51b815260048101849052601c818801527f526573756c743a204578636565647320746f74616c20737570706c79000000006044820152606490fd5b60405162461bcd60e51b815260048101839052601b818701527f526573756c743a2043616d706169676e206e6f742061637469766500000000006044820152606490fd5b634e487b7160e01b875260216004528587fd5b80fd5b5034620003c55780600319360112620003c5576020600154604051908152f35b5034620003c55760e0366003190112620003c5576084356001600160401b03811162000246576200041e90369060040162001709565b60a4356001600160401b03811162000b44576200044090369060040162001709565b60c4356001600160401b03811162000b40576200046290369060040162001709565b949042602435111562000aef57602435604435111562000a98576004351562000a53576064351562000a0f57600154956000198714620009fb576001870160015560405180610df08101106001600160401b03610df0830111176200082a57610df06200183782396060610df08201528062000503620004eb6060610df08401018a886200173e565b610df0830181036020610df08501015287896200173e565b306040610df084010152039089f0918215620009f057670de0b6b3a764000092600435808502048403620009dc57888a52600260205260408a2093336bffffffffffffffffffffffff60a01b86541617855560043560018601556024356002860155604435600386015560643560048601558a600586015560643590600435020460068501558960078501556001600160401b0388116200090357620005ad60088501546200156f565b601f811162000992575b50878a601f821160011462000923578b9162000917575b508860011b906000198a60031b1c19161760088501555b6001600160401b03861162000903576200060360098501546200156f565b601f8111620008b9575b50858a601f82116001146200084a578b916200083e575b508660011b906000198860031b1c19161760098501555b600a840180546001600160a01b0319166001600160a01b039092169190911790556001600160401b0382116200082a576200067a600b8401546200156f565b601f8111620007e1575b5060209888969594939291816001601f85111462000741578362000700947fd480b74e35dd5c1829b9f29cd39f2ebdeb02598aee4fc0220c30371e2d356f359997946200070e999794600b949262000735575b50508160011b916000199060031b1c1916179101555b6040519760a0895260a08901916200173e565b91868303898801526200173e565b926004356040820152602435606082015260443560808201528033940390a3604051908152f35b013590503880620006d7565b91600b850183528b8320925b601f1985168110620007c657506001847fd480b74e35dd5c1829b9f29cd39f2ebdeb02598aee4fc0220c30371e2d356f359997946200070e999794600b946200070098601f19811610620007ab575b505050811b01910155620006ed565b0135600019600384901b60f8161c191690553880806200079c565b8183013584558b9950600190930192908c01908c016200074d565b600b84018a5260208a20601f840160051c81016020851062000822575b601f830160051c820181106200081657505062000684565b8b8155600101620007fe565b5080620007fe565b634e487b7160e01b89526041600452602489fd5b90508701353862000624565b600986018c5260208c2091508b5b601f1989168110620008a0575087601f1981161062000885575b5050600186811b0160098501556200063b565b880135600019600389901b60f8161c19169055388062000872565b9091602060018192858d01358155019301910162000858565b600985018b5260208b20601f880160051c810160208910620008fb575b8c601f840160051c83018210620008f0575050506200060d565b8155600101620008d6565b5080620008d6565b634e487b7160e01b8a52604160045260248afd5b905085013538620005ce565b600886018c5260208c2091508b5b601f198b16811062000979575089601f198116106200095e575b5050600188811b016008850155620005e5565b86013560001960038b901b60f8161c1916905538806200094b565b9091602060018192858b01358155019301910162000931565b600885018b5260208b20601f8a0160051c810160208b10620009d4575b8c601f840160051c83018210620009c957505050620005b7565b8155600101620009af565b5080620009af565b634e487b7160e01b8a52601160045260248afd5b6040513d8a823e3d90fd5b634e487b7160e01b88526011600452602488fd5b606460405162461bcd60e51b815260206004820152602060248201527f526573756c743a20546f74616c20737570706c79206d757374206265203e20306044820152fd5b60405162461bcd60e51b815260206004820152601f60248201527f526573756c743a20476f616c20616d6f756e74206d757374206265203e2030006044820152606490fd5b60405162461bcd60e51b815260206004820152602960248201527f526573756c743a20456e642074696d65206d7573742062652061667465722073604482015268746172742074696d6560b81b6064820152608490fd5b60405162461bcd60e51b8152602060048201526024808201527f526573756c743a2053746172742074696d65206d75737420626520696e2066756044820152637475726560e01b6064820152608490fd5b8580fd5b8380fd5b5034620003c5576020366003190112620003c55762000b69600435620017ea565b60405190600481101562000b7f57602092508152f35b634e487b7160e01b83526021600452602483fd5b5034620003c5576020366003190112620003c557604062000d89916060610160835162000bc081620015d6565b838152836020820152838582015283838201528360808201528360a08201528360c08201528360e08201528261010082015282610120820152836101408201520152600435815260026020522062000cb8600b6040519262000c2284620015d6565b80546001600160a01b0316845260018101546020850152600281015460408501526003810154606085015260048101546080850152600581015460a0850152600681015460c0850152600781015460e085015262000c836008820162001615565b61010085015262000c976009820162001615565b610120850152600a8101546001600160a01b03166101408501520162001615565b6101608201526040519182916020835260018060a01b038151166020840152602081015160408401526040810151606084015260608101516080840152608081015160a084015260a081015160c084015260c081015160e084015260e081015161010084015261010081015162000d3f61018091826101208701526101a0860190620016c7565b9061016062000d6361012085015193601f199485898303016101408a0152620016c7565b6101408501516001600160a01b03168783015293015185840390920190850152620016c7565b0390f35b5034620003c5576040366003190112620003c5576004356001600160a01b0381169081900362000246576040828192815260036020528181206024358252602052206001815491015482519182526020820152f35b5034620003c557602080600319360112620002465760043562000e04620017c6565b808352600282526040832080546001600160a01b0316330362000f7b5762000e2c82620017ea565b600481101562000f675760020362000f225760070191825492831562000edd578490558380808086335af162000e6162001783565b501562000e9a577ff440aec6b52895984d061d622e6edeba6210f7c3e059be920663140c084560d7906040519384523393a36001815580f35b6064906040519062461bcd60e51b825280600483015260248201527f526573756c743a205769746864726177207472616e73666572206661696c65646044820152fd5b60405162461bcd60e51b815260048101839052601b60248201527f526573756c743a204e6f7468696e6720746f20776974686472617700000000006044820152606490fd5b60405162461bcd60e51b815260048101849052601f60248201527f526573756c743a2043616d706169676e206d7573742062652066756e646564006044820152606490fd5b634e487b7160e01b85526021600452602485fd5b60405162461bcd60e51b815260048101849052602160248201527f526573756c743a204f6e6c792063726561746f722063616e20776974686472616044820152607760f81b6064820152608490fd5b5034620003c557602080600319360112620002465760043562000fec620017c6565b8083526002825260408320916200100382620017ea565b600481101562000f675760030362001185573384526003815260408420828552815260408420908154936001830180549386156200114057879055869055600a01546001600160a01b0316803b1562000b4057604051632770a7eb60e21b8152336004820152602481018490529086908290604490829084905af1801562001135576200111f575b508480808087335af16200109e62001783565b5015620010db576040519384528301527f279ac10417b4a21068fc6d3150dd2e5fc45320cb722f60a07d37a113a3bf3acd60403393a36001815580f35b6064906040519062461bcd60e51b82526004820152601e60248201527f526573756c743a20526566756e64207472616e73666572206661696c656400006044820152fd5b6200112d90959195620015ac565b93386200108b565b6040513d88823e3d90fd5b60405162461bcd60e51b815260048101859052601a60248201527f526573756c743a204e6f2066756e647320746f20726566756e640000000000006044820152606490fd5b6064906040519062461bcd60e51b82526004820152601f60248201527f526573756c743a2043616d706169676e206d757374206265206661696c6564006044820152fd5b5034620003c5576040366003190112620003c5576004356001600160401b0360243581811162000b44576200120390369060040162001709565b8385526002602090815260408620805492949193926001600160a01b031633036200142d576200123386620017ea565b60048110156200141957620013c657600b01908411620013b2576200125981546200156f565b601f81116200136a575b5085601f8511600114620012dc5791620012ca91857fd0ed2732da48175aaae07fd675a2a78b1700515722f6675d7ff5f0e09f22f3099695948991620012d0575b508560011b906000198760031b1c19161790555b6040519383859485528401916200173e565b0390a280f35b905082013538620012a4565b81875283872090601f198616885b81811062001352575091620012ca9391877fd0ed2732da48175aaae07fd675a2a78b1700515722f6675d7ff5f0e09f22f309989796941062001337575b5050600185811b019055620012b8565b830135600019600388901b60f8161c19169055388062001327565b919286600181928689013581550194019201620012ea565b818752838720601f860160051c810191858710620013a7575b601f0160051c01905b8181106200139b575062001263565b8781556001016200138c565b909150819062001383565b634e487b7160e01b86526041600452602486fd5b60405162461bcd60e51b815260048101859052602560248201527f526573756c743a2043616e6e6f7420757064617465206966206e6f74207570636044820152646f6d696e6760d81b6064820152608490fd5b634e487b7160e01b88526021600452602488fd5b60405162461bcd60e51b815260048101859052601f60248201527f526573756c743a204f6e6c792063726561746f722063616e20757064617465006044820152606490fd5b5034620003c5576020366003190112620003c5576004358152600260205260409020600160a01b60019003808254169060018301549260028101549160038201546004830154600584015460068501549060078601549260088701620014d89062001615565b94620014e76009890162001615565b96600a8901541697600b01620014fd9062001615565b986040519b8c9b8c5260208c015260408b015260608a0152608089015260a088015260c087015260e08601526101808061010087015285016200154091620016c7565b8481036101208601526200155491620016c7565b9061014084015282810361016084015262000d8991620016c7565b90600182811c92168015620015a1575b60208310146200158b57565b634e487b7160e01b600052602260045260246000fd5b91607f16916200157f565b6001600160401b038111620015c057604052565b634e487b7160e01b600052604160045260246000fd5b61018081019081106001600160401b03821117620015c057604052565b90601f801991011681019081106001600160401b03821117620015c057604052565b90604051918260008254926200162b846200156f565b908184526001948581169081600014620016a257506001146200165b575b50506200165992500383620015f3565b565b9093915060005260209081600020936000915b81831062001689575050620016599350820101388062001649565b855488840185015294850194879450918301916200166e565b9150506200165994506020925060ff191682840152151560051b820101388062001649565b919082519283825260005b848110620016f4575050826000602080949584010152601f8019910116010190565b602081830181015184830182015201620016d2565b9181601f8401121562001739578235916001600160401b0383116200173957602083818601950101116200173957565b600080fd5b908060209392818452848401376000828201840152601f01601f1916010190565b919082018092116200176d57565b634e487b7160e01b600052601160045260246000fd5b3d15620017c1573d906001600160401b038211620015c05760405191620017b5601f8201601f191660200184620015f3565b82523d6000602084013e565b606090565b600260005414620017d8576002600055565b604051633ee5aeb560e01b8152600490fd5b600052600260205260406000206007810154600182015411156200183057600281015442106200182a57600301544211156200182557600390565b600190565b50600090565b5060029056fe608060405234620003945762000df0803803806200001d8162000399565b9283398101606082820312620003945781516001600160401b0391908281116200039457816200004f918501620003bf565b6020918285015184811162000394576040916200006e918701620003bf565b9401516001600160a01b039485821694918590036200039457825182811162000294576003918254916001958684811c9416801562000389575b8885101462000373578190601f948581116200031d575b508890858311600114620002b657600092620002aa575b505060001982861b1c191690861b1783555b8051938411620002945760049586548681811c9116801562000289575b82821014620002745783811162000229575b5080928511600114620001bb5750938394918492600095620001af575b50501b92600019911b1c19161781555b8115620001975750600580546001600160a01b03198116831790915560405192167f8be0079c531659141344cd1fd0a4f28419497f9722a3daafe3b4186f6b6457e0600080a36109be9081620004328239f35b602490600060405191631e4fbdf760e01b8352820152fd5b01519350388062000134565b92919084601f1981168860005285600020956000905b898383106200020e5750505010620001f3575b50505050811b01815562000144565b01519060f884600019921b161c1916905538808080620001e4565b858701518955909701969485019488935090810190620001d1565b87600052816000208480880160051c8201928489106200026a575b0160051c019087905b8281106200025d57505062000117565b600081550187906200024d565b9250819262000244565b602288634e487b7160e01b6000525260246000fd5b90607f169062000105565b634e487b7160e01b600052604160045260246000fd5b015190503880620000d6565b90889350601f19831691876000528a6000209260005b8c828210620003065750508411620002ed575b505050811b018355620000e8565b015160001983881b60f8161c19169055388080620002df565b8385015186558c97909501949384019301620002cc565b90915085600052886000208580850160051c8201928b861062000369575b918a91869594930160051c01915b82811062000359575050620000bf565b600081558594508a910162000349565b925081926200033b565b634e487b7160e01b600052602260045260246000fd5b93607f1693620000a8565b600080fd5b6040519190601f01601f191682016001600160401b038111838210176200029457604052565b919080601f84011215620003945782516001600160401b0381116200029457602090620003f5601f8201601f1916830162000399565b92818452828287010111620003945760005b8181106200041d57508260009394955001015290565b85810183015184820184015282016200040756fe6080604081815260048036101561001557600080fd5b600092833560e01c90816306fdde031461070f57508063095ea7b31461066657806318160ddd1461064757806323b872dd14610554578063313ce5671461053857806340c10f191461048957806370a0823114610452578063715018a6146103f25780638da5cb5b146103c957806395d89b41146102a95780639dc29fac146101cd578063a9059cbb1461019c578063dd62ed3e1461014f5763f2fde38b146100bd57600080fd5b3461014b57602036600319011261014b576100d661084d565b906100df61087e565b6001600160a01b03918216928315610135575050600554826bffffffffffffffffffffffff60a01b821617600555167f8be0079c531659141344cd1fd0a4f28419497f9722a3daafe3b4186f6b6457e08380a380f35b51631e4fbdf760e01b8152908101849052602490fd5b8280fd5b5050346101985780600319360112610198578060209261016d61084d565b610175610868565b6001600160a01b0391821683526001865283832091168252845220549051908152f35b5080fd5b5050346101985780600319360112610198576020906101c66101bc61084d565b60243590336108aa565b5160018152f35b508290346101985782600319360112610198576101e861084d565b90602435906101f561087e565b6001600160a01b0383169283156102925783855284602052858520549183831061025e5750508184957fddf252ad1be2c89b69c2b068fc378daa952ba7f163c4a11628f55a4df523b3ef936020938688528785520381872055816002540360025551908152a380f35b865163391434e360e21b81526001600160a01b03909216908201908152602081018390526040810184905281906060010390fd5b8551634b637e8f60e11b8152808301869052602490fd5b50919034610198578160031936011261019857805190828454600181811c908083169283156103bf575b60209384841081146103ac57838852908115610390575060011461033b575b505050829003601f01601f191682019267ffffffffffffffff8411838510176103285750829182610324925282610804565b0390f35b634e487b7160e01b815260418552602490fd5b8787529192508591837f8a35acfbc15ff81a39ae7d344fd709f28e8600b4aa8c65c6b64bfe7fe36bd19b5b83851061037c57505050508301013880806102f2565b805488860183015293019284908201610366565b60ff1916878501525050151560051b84010190503880806102f2565b634e487b7160e01b895260228a52602489fd5b91607f16916102d3565b50503461019857816003193601126101985760055490516001600160a01b039091168152602090f35b833461044f578060031936011261044f5761040b61087e565b600580546001600160a01b0319811690915581906001600160a01b03167f8be0079c531659141344cd1fd0a4f28419497f9722a3daafe3b4186f6b6457e08280a380f35b80fd5b5050346101985760203660031901126101985760209181906001600160a01b0361047a61084d565b16815280845220549051908152f35b50903461014b578060031936011261014b576104a361084d565b90602435916104b061087e565b6001600160a01b03169283156105235760025490838201809211610510575084927fddf252ad1be2c89b69c2b068fc378daa952ba7f163c4a11628f55a4df523b3ef9260209260025585855284835280852082815401905551908152a380f35b634e487b7160e01b865260119052602485fd5b84602492519163ec442f0560e01b8352820152fd5b5050346101985781600319360112610198576020905160128152f35b50823461044f57606036600319011261044f5761056f61084d565b610577610868565b916044359360018060a01b0383168083526001602052868320338452602052868320549160001983106105b3575b6020886101c68989896108aa565b86831061061b5781156106045733156105ed575082526001602090815286832033845281529186902090859003905582906101c6876105a5565b8751634a1406b160e11b8152908101849052602490fd5b875163e602df0560e01b8152908101849052602490fd5b8751637dc7a0d960e11b8152339181019182526020820193909352604081018790528291506060010390fd5b5050346101985781600319360112610198576020906002549051908152f35b503461014b578160031936011261014b5761067f61084d565b6024359033156106f8576001600160a01b03169182156106e157508083602095338152600187528181208582528752205582519081527f8c5be1e5ebec7d5bd14f71427d1e84f3dd0314c0f7b2291e5b200ac8c7c3b925843392a35160018152f35b8351634a1406b160e11b8152908101859052602490fd5b835163e602df0560e01b8152808401869052602490fd5b849150833461014b578260031936011261014b5782600354600181811c908083169283156107fa575b60209384841081146103ac578388529081156107de575060011461078857505050829003601f01601f191682019267ffffffffffffffff8411838510176103285750829182610324925282610804565b600387529192508591837fc2575a0e9e593c00f959f8c92f12db2869c3395a3b0502d05e2516446f71f85b5b8385106107ca57505050508301018580806102f2565b8054888601830152930192849082016107b4565b60ff1916878501525050151560051b84010190508580806102f2565b91607f1691610738565b6020808252825181830181905290939260005b82811061083957505060409293506000838284010152601f8019910116010190565b818101860151848201604001528501610817565b600435906001600160a01b038216820361086357565b600080fd5b602435906001600160a01b038216820361086357565b6005546001600160a01b0316330361089257565b60405163118cdaa760e01b8152336004820152602490fd5b916001600160a01b0380841692831561096f57169283156109565760009083825281602052604082205490838210610924575091604082827fddf252ad1be2c89b69c2b068fc378daa952ba7f163c4a11628f55a4df523b3ef958760209652828652038282205586815220818154019055604051908152a3565b60405163391434e360e21b81526001600160a01b03919091166004820152602481019190915260448101839052606490fd5b60405163ec442f0560e01b815260006004820152602490fd5b604051634b637e8f60e11b815260006004820152602490fdfea264697066735822122094055b52013e2a1f30a50b341fd37deb603dd7cac7436551cd3103acd4ff09b864736f6c63430008140033a264697066735822122048b288c7751acef0860c629b23cf479ea88324eeb8fdfdcdca101fe3f42430d464736f6c63430008140033",
  "linkReferences": {},
  "deployedLinkReferences": {}
}