{
  "_format": "hh-sol-artifact-1",
  "contractName": "CampaignFactory",
  "sourceName": "contracts/CampaignFactory.sol",
  "abi": [
    {
      "inputs": [],
      "name": "ReentrancyGuardReentrantCall",
      "type": "error"
    },
    {
      "anonymous": false,
      "inputs": [
        {
          "indexed": true,
          "internalType": "uint256",
          "name": "campaignId",
          "type": "uint256"
        },
        {
          "indexed": true,
          "internalType": "address",
          "name": "creator",
          "type": "address"
        },
        {
          "indexed": false,
          "internalType": "string",
          "name": "tokenName",
          "type": "string"
        },
        {
          "indexed": false,
          "internalType": "string",
          "name": "tokenSymbol",
          "type": "string"
        },
        {
          "indexed": false,
          "internalType": "uint256",
          "name": "goalAmount",
          "type": "uint256"
        },
        {
          "indexed": false,
          "internalType": "uint256",
          "name": "startTime",
          "type": "uint256"
        },
        {
          "indexed": false,
          "internalType": "uint256",
          "name": "endTime",
          "type": "uint256"
        }
      ],
      "name": "CampaignCreated",
      "type": "event"
    },
    {
      "anonymous": false,
      "inputs": [
        {
          "indexed": true,
          "internalType": "uint256",
          "name": "campaignId",
          "type": "uint256"
        },
        {
          "indexed": false,
          "internalType": "string",
          "name": "newCID",
          "type": "string"
        }
      ],
      "name": "CampaignMetadataUpdated",
      "type": "event"
    },
    {
      "anonymous": false,
      "inputs": [
        {
          "indexed": true,
          "internalType": "uint256",
          "name": "campaignId",
          "type": "uint256"
        },
        {
          "indexed": true,
          "internalType": "address",
          "name": "creator",
          "type": "address"
        },
        {
          "indexed": false,
          "internalType": "uint256",
          "name": "amount",
          "type": "uint256"
        }
      ],
      "name": "FundsWithdrawn",
      "type": "event"
    },
    {
      "anonymous": false,
      "inputs": [
        {
          "indexed": true,
          "internalType": "uint256",
          "name": "campaignId",
          "type": "uint256"
        },
        {
          "indexed": true,
          "internalType": "address",
          "name": "investor",
          "type": "address"
        },
        {
          "indexed": false,
          "internalType": "uint256",
          "name": "amountInvested",
          "type": "uint256"
        },
        {
          "indexed": false,
          "internalType": "uint256",
          "name": "tokensPurchased",
          "type": "uint256"
        }
      ],
      "name": "Invested",
      "type": "event"
    },
    {
      "anonymous": false,
      "inputs": [
        {
          "indexed": true,
          "internalType": "uint256",
          "name": "campaignId",
          "type": "uint256"
        },
        {
          "indexed": true,
          "internalType": "address",
          "name": "investor",
          "type": "address"
        },
        {
          "indexed": false,
          "internalType": "uint256",
          "name": "amountRefuned",
          "type": "uint256"
        },
        {
          "indexed": false,
          "internalType": "uint256",
          "name": "tokensBurned",
          "type": "uint256"
        }
      ],
      "name": "Refunded",
      "type": "event"
    },
    {
      "inputs": [
        {
          "internalType": "uint256",
          "name": "",
          "type": "uint256"
        }
      ],
      "name": "campaigns",
      "outputs": [
        {
          "internalType": "address",
          "name": "creator",
          "type": "address"
        },
        {
          "internalType": "uint256",
          "name": "goalAmount",
          "type": "uint256"
        },
        {
          "internalType": "uint256",
          "name": "startTime",
          "type": "uint256"
        },
        {
          "internalType": "uint256",
          "name": "endTime",
          "type": "uint256"
        },
        {
          "internalType": "uint256",
          "name": "totalTokenSupply",
          "type": "uint256"
        },
        {
          "internalType": "uint256",
          "name": "mintedSupply",
          "type": "uint256"
        },
        {
          "internalType": "uint256",
          "name": "pricePerToken",
          "type": "uint256"
        },
        {
          "internalType": "uint256",
          "name": "amountRaised",
          "type": "uint256"
        },
        {
          "internalType": "string",
          "name": "tokenName",
          "type": "string"
        },
        {
          "internalType": "string",
          "name": "tokenSymbol",
          "type": "string"
        },
        {
          "internalType": "address",
          "name": "tokenAddress",
          "type": "address"
        },
        {
          "internalType": "string",
          "name": "metadataCID",
          "type": "string"
        }
      ],
      "stateMutability": "view",
      "type": "function"
    },
    {
      "inputs": [
        {
          "internalType": "uint256",
          "name": "goalAmount",
          "type": "uint256"
        },
        {
          "internalType": "uint256",
          "name": "startTime",
          "type": "uint256"
        },
        {
          "internalType": "uint256",
          "name": "endTime",
          "type": "uint256"
        },
        {
          "internalType": "uint256",
          "name": "totalTokenSupply",
          "type": "uint256"
        },
        {
          "internalType": "string",
          "name": "tokenName",
          "type": "string"
        },
        {
          "internalType": "string",
          "name": "tokenSymbol",
          "type": "string"
        },
        {
          "internalType": "string",
          "name": "metadataCID",
          "type": "string"
        }
      ],
      "name": "createCampaign",
      "outputs": [
        {
          "internalType": "uint256",
          "name": "",
          "type": "uint256"
        }
      ],
      "stateMutability": "nonpayable",
      "type": "function"
    },
    {
      "inputs": [
        {
          "internalType": "uint256",
          "name": "campaignId",
          "type": "uint256"
        }
      ],
      "name": "getCampaign",
      "outputs": [
        {
          "components": [
            {
              "internalType": "address",
              "name": "creator",
              "type": "address"
            },
            {
              "internalType": "uint256",
              "name": "goalAmount",
              "type": "uint256"
            },
            {
              "internalType": "uint256",
              "name": "startTime",
              "type": "uint256"
            },
            {
              "internalType": "uint256",
              "name": "endTime",
              "type": "uint256"
            },
            {
              "internalType": "uint256",
              "name": "totalTokenSupply",
              "type": "uint256"
            },
            {
              "internalType": "uint256",
              "name": "mintedSupply",
              "type": "uint256"
            },
            {
              "internalType": "uint256",
              "name": "pricePerToken",
              "type": "uint256"
            },
            {
              "internalType": "uint256",
              "name": "amountRaised",
              "type": "uint256"
            },
            {
              "internalType": "string",
              "name": "tokenName",
              "type": "string"
            },
            {
              "internalType": "string",
              "name": "tokenSymbol",
              "type": "string"
            },
            {
              "internalType": "address",
              "name": "tokenAddress",
              "type": "address"
            },
            {
              "internalType": "string",
              "name": "metadataCID",
              "type": "string"
            }
          ],
          "internalType": "struct CampaignFactory.Campaign",
          "name": "",
          "type": "tuple"
        }
      ],
      "stateMutability": "view",
      "type": "function"
    },
    {
      "inputs": [
        {
          "internalType": "uint256",
          "name": "campaignId",
          "type": "uint256"
        }
      ],
      "name": "getStatus",
      "outputs": [
        {
          "internalType": "enum CampaignFactory.CampaignStatus",
          "name": "",
          "type": "uint8"
        }
      ],
      "stateMutability": "view",
      "type": "function"
    },
    {
      "inputs": [
        {
          "internalType": "uint256",
          "name": "campaignId",
          "type": "uint256"
        },
        {
          "internalType": "uint256",
          "name": "tokenAmount",
          "type": "uint256"
        }
      ],
      "name": "invest",
      "outputs": [],
      "stateMutability": "payable",
      "type": "function"
    },
    {
      "inputs": [
        {
          "internalType": "address",
          "name": "",
          "type": "address"
        },
        {
          "internalType": "uint256",
          "name": "",
          "type": "uint256"
        }
      ],
      "name": "investorInfo",
      "outputs": [
        {
          "internalType": "uint256",
          "name": "amountInvested",
          "type": "uint256"
        },
        {
          "internalType": "uint256",
          "name": "tokensPurchased",
          "type": "uint256"
        }
      ],
      "stateMutability": "view",
      "type": "function"
    },
    {
      "inputs": [],
      "name": "nextCampaignId",
      "outputs": [
        {
          "internalType": "uint256",
          "name": "",
          "type": "uint256"
        }
      ],
      "stateMutability": "view",
      "type": "function"
    },
    {
      "inputs": [
        {
          "internalType": "uint256",
          "name": "campaignId",
          "type": "uint256"
        }
      ],
      "name": "refund",
      "outputs": [],
      "stateMutability": "nonpayable",
      "type": "function"
    },
    {
      "inputs": [
        {
          "internalType": "uint256",
          "name": "campaignId",
          "type": "uint256"
        },
        {
          "internalType": "string",
          "name": "newCID",
          "type": "string"
        }
      ],
      "name": "updateCampaignMetadata",
      "outputs": [],
      "stateMutability": "nonpayable",
      "type": "function"
    },
    {
      "inputs": [
        {
          "internalType": "uint256",
          "name": "campaignId",
          "type": "uint256"
        }
      ],
      "name": "withdraw",
      "outputs": [],
      "stateMutability": "nonpayable",
      "type": "function"
    }
  ],
  "bytecode": "0x6080806040523461001b57600160005561254e90816100218239f35b600080fdfe608060405260043610156200001357600080fd5b6000803560e01c8063141961bc14620013ba5780631dda279b1462001110578063278ecde11462000f555780632e1a7d4d1462000db05780633d6859f21462000d5b5780635598f8cc1462000b615780635c622a0e1462000b165780637710003914620003af5780637903a756146200038f5763d87aa643146200009657600080fd5b60403660031901126200038c5760246004358135620000b4620016b8565b81845260206002815260408520620000cc84620016dc565b60048110156200037957600103620003355760058101620000ef84825462001694565b600483015410620002f1576006820154808502908582041485151715620002dc57670de0b6b3a76400009004958634106200029957908792918734116200024a575b50600782016200014388825462001694565b90556200015285825462001694565b905533825260038352604082208583528352604082206200017587825462001694565b905533825260038352604082208583528352600160408320016200019b85825462001694565b9055600a01546001600160a01b0316803b1562000246576040516340c10f1960e01b8152336004820152602481018590529082908290604490829084905af180156200023b576200021f575b50506040519384528301527f271dec505c61c970bdd791a963b7162d814edf6292f40c4beef2af1e48eea1e860403393a36001815580f35b6200022a90620014f4565b62000237578438620001e7565b8480fd5b6040513d84823e3d90fd5b5080fd5b90919250863403903482116200028757509087808080809695818c34146200027d575b3390f1156200023b573862000131565b506108fc6200026d565b634e487b7160e01b8952601160045288fd5b83601d6064926040519262461bcd60e51b845260048401528201527f526573756c743a20496e73756666696369656e74204554482073656e740000006044820152fd5b86634e487b7160e01b60005260116004526000fd5b60405162461bcd60e51b815260048101849052601c818801527f526573756c743a204578636565647320746f74616c20737570706c79000000006044820152606490fd5b60405162461bcd60e51b815260048101839052601b818701527f526573756c743a2043616d706169676e206e6f742061637469766500000000006044820152606490fd5b634e487b7160e01b875260216004528587fd5b80fd5b50346200038c57806003193601126200038c576020600154604051908152f35b50346200038c5760e03660031901126200038c5760843567ffffffffffffffff81116200024657620003e69036906004016200163d565b60a43567ffffffffffffffff811162000b1257620004099036906004016200163d565b60c43567ffffffffffffffff811162000b0e576200042c9036906004016200163d565b949042602435111562000abd57602435604435111562000a66576004351562000a215760643515620009dd57600154956000198714620009c9576001870160015560405180610df081011067ffffffffffffffff610df083011117620007f857610df06200172982396060610df082015280620004ce620004b66060610df08401018a8862001673565b610df0830181036020610df085010152878962001673565b306040610df084010152039089f0918215620009be57670de0b6b3a764000092600435808502048403620009aa57888a52600260205260408a2093336bffffffffffffffffffffffff60a01b86541617855560043560018601556024356002860155604435600386015560643560048601558a6005860155606435906004350204600685015589600785015567ffffffffffffffff8811620008d157620005796008850154620014b7565b601f811162000960575b50878a601f8211600114620008f1578b91620008e5575b508860011b906000198a60031b1c19161760088501555b67ffffffffffffffff8611620008d157620005d06009850154620014b7565b601f811162000887575b50858a601f821160011462000818578b916200080c575b508660011b906000198860031b1c19161760098501555b600a840180546001600160a01b0319166001600160a01b0390921691909117905567ffffffffffffffff8211620007f85762000648600b840154620014b7565b601f8111620007af575b5060209888969594939291816001601f8511146200070f5783620006ce947fd480b74e35dd5c1829b9f29cd39f2ebdeb02598aee4fc0220c30371e2d356f35999794620006dc999794600b949262000703575b50508160011b916000199060031b1c1916179101555b6040519760a0895260a089019162001673565b918683038988015262001673565b926004356040820152602435606082015260443560808201528033940390a3604051908152f35b013590503880620006a5565b91600b850183528b8320925b601f19851681106200079457506001847fd480b74e35dd5c1829b9f29cd39f2ebdeb02598aee4fc0220c30371e2d356f35999794620006dc999794600b94620006ce98601f1981161062000779575b505050811b01910155620006bb565b0135600019600384901b60f8161c191690553880806200076a565b8183013584558b9950600190930192908c01908c016200071b565b600b84018a5260208a20601f840160051c810160208510620007f0575b601f830160051c82018110620007e457505062000652565b8b8155600101620007cc565b5080620007cc565b634e487b7160e01b89526041600452602489fd5b905087013538620005f1565b600986018c5260208c2091508b5b601f19891681106200086e575087601f1981161062000853575b5050600186811b01600985015562000608565b880135600019600389901b60f8161c19169055388062000840565b9091602060018192858d01358155019301910162000826565b600985018b5260208b20601f880160051c810160208910620008c9575b8c601f840160051c83018210620008be57505050620005da565b8155600101620008a4565b5080620008a4565b634e487b7160e01b8a52604160045260248afd5b9050850135386200059a565b600886018c5260208c2091508b5b601f198b16811062000947575089601f198116106200092c575b5050600188811b016008850155620005b1565b86013560001960038b901b60f8161c19169055388062000919565b9091602060018192858b013581550193019101620008ff565b600885018b5260208b20601f8a0160051c810160208b10620009a2575b8c601f840160051c83018210620009975750505062000583565b81556001016200097d565b50806200097d565b634e487b7160e01b8a52601160045260248afd5b6040513d8a823e3d90fd5b634e487b7160e01b88526011600452602488fd5b606460405162461bcd60e51b815260206004820152602060248201527f526573756c743a20546f74616c20737570706c79206d757374206265203e20306044820152fd5b60405162461bcd60e51b815260206004820152601f60248201527f526573756c743a20476f616c20616d6f756e74206d757374206265203e2030006044820152606490fd5b60405162461bcd60e51b815260206004820152602960248201527f526573756c743a20456e642074696d65206d7573742062652061667465722073604482015268746172742074696d6560b81b6064820152608490fd5b60405162461bcd60e51b8152602060048201526024808201527f526573756c743a2053746172742074696d65206d75737420626520696e2066756044820152637475726560e01b6064820152608490fd5b8580fd5b8380fd5b50346200038c5760203660031901126200038c5762000b37600435620016dc565b60405190600481101562000b4d57602092508152f35b634e487b7160e01b83526021600452602483fd5b50346200038c5760203660031901126200038c57604062000d57916060610160835162000b8e816200151f565b838152836020820152838582015283838201528360808201528360a08201528360c08201528360e08201528261010082015282610120820152836101408201520152600435815260026020522062000c86600b6040519262000bf0846200151f565b80546001600160a01b0316845260018101546020850152600281015460408501526003810154606085015260048101546080850152600581015460a0850152600681015460c0850152600781015460e085015262000c51600882016200153d565b61010085015262000c65600982016200153d565b610120850152600a8101546001600160a01b0316610140850152016200153d565b6101608201526040519182916020835260018060a01b038151166020840152602081015160408401526040810151606084015260608101516080840152608081015160a084015260a081015160c084015260c081015160e084015260e081015161010084015261010081015162000d0d61018091826101208701526101a0860190620015fb565b9061016062000d3161012085015193601f199485898303016101408a0152620015fb565b6101408501516001600160a01b03168783015293015185840390920190850152620015fb565b0390f35b50346200038c5760403660031901126200038c576004356001600160a01b0381169081900362000246576040828192815260036020528181206024358252602052206001815491015482519182526020820152f35b50346200038c57602080600319360112620002465760043562000dd2620016b8565b808352600282526040832080546001600160a01b0316330362000f065762000dfa82620016dc565b600481101562000ef25760020362000ead5760070191825492831562000e685784905583808080863382f11562000e5d577ff440aec6b52895984d061d622e6edeba6210f7c3e059be920663140c084560d7906040519384523393a36001815580f35b6040513d85823e3d90fd5b60405162461bcd60e51b815260048101839052601b60248201527f526573756c743a204e6f7468696e6720746f20776974686472617700000000006044820152606490fd5b60405162461bcd60e51b815260048101849052601f60248201527f526573756c743a2043616d706169676e206d7573742062652066756e646564006044820152606490fd5b634e487b7160e01b85526021600452602485fd5b60405162461bcd60e51b815260048101849052602160248201527f526573756c743a204f6e6c792063726561746f722063616e20776974686472616044820152607760f81b6064820152608490fd5b50346200038c57602080600319360112620002465760043562000f77620016b8565b80835260028252604083209162000f8e82620016dc565b600481101562000ef257600303620010cc573384526003815260408420828552815260408420908154936001830180549386156200108757879055869055600a01546001600160a01b0316803b1562000b0e57604051632770a7eb60e21b8152336004820152602481018490529086908290604490829084905af180156200107c5762001066575b5084808080873382f1156200105b576040519384528301527f279ac10417b4a21068fc6d3150dd2e5fc45320cb722f60a07d37a113a3bf3acd60403393a36001815580f35b6040513d86823e3d90fd5b6200107490959195620014f4565b933862001016565b6040513d88823e3d90fd5b60405162461bcd60e51b815260048101859052601a60248201527f526573756c743a204e6f2066756e647320746f20726566756e640000000000006044820152606490fd5b6064906040519062461bcd60e51b82526004820152601f60248201527f526573756c743a2043616d706169676e206d757374206265206661696c6564006044820152fd5b50346200038c5760403660031901126200038c5760043567ffffffffffffffff60243581811162000b12576200114b9036906004016200163d565b8385526002602090815260408620805492949193926001600160a01b0316330362001375576200117b86620016dc565b600481101562001361576200130e57600b01908411620012fa57620011a18154620014b7565b601f8111620012b2575b5085601f85116001146200122457916200121291857fd0ed2732da48175aaae07fd675a2a78b1700515722f6675d7ff5f0e09f22f309969594899162001218575b508560011b906000198760031b1c19161790555b60405193838594855284019162001673565b0390a280f35b905082013538620011ec565b81875283872090601f198616885b8181106200129a575091620012129391877fd0ed2732da48175aaae07fd675a2a78b1700515722f6675d7ff5f0e09f22f30998979694106200127f575b5050600185811b01905562001200565b830135600019600388901b60f8161c1916905538806200126f565b91928660018192868901358155019401920162001232565b818752838720601f860160051c810191858710620012ef575b601f0160051c01905b818110620012e35750620011ab565b878155600101620012d4565b9091508190620012cb565b634e487b7160e01b86526041600452602486fd5b60405162461bcd60e51b815260048101859052602560248201527f526573756c743a2043616e6e6f7420757064617465206966206e6f74207570636044820152646f6d696e6760d81b6064820152608490fd5b634e487b7160e01b88526021600452602488fd5b60405162461bcd60e51b815260048101859052601f60248201527f526573756c743a204f6e6c792063726561746f722063616e20757064617465006044820152606490fd5b50346200038c5760203660031901126200038c576004358152600260205260409020600160a01b6001900380825416906001830154926002810154916003820154600483015460058401546006850154906007860154926008870162001420906200153d565b946200142f600989016200153d565b96600a8901541697600b0162001445906200153d565b986040519b8c9b8c5260208c015260408b015260608a0152608089015260a088015260c087015260e08601526101808061010087015285016200148891620015fb565b8481036101208601526200149c91620015fb565b9061014084015282810361016084015262000d5791620015fb565b90600182811c92168015620014e9575b6020831014620014d357565b634e487b7160e01b600052602260045260246000fd5b91607f1691620014c7565b67ffffffffffffffff81116200150957604052565b634e487b7160e01b600052604160045260246000fd5b610180810190811067ffffffffffffffff8211176200150957604052565b90604051916000908054906200155382620014b7565b908186526001928381169081600014620015d9575060011462001599575b505050829003601f01601f1916820167ffffffffffffffff8111838210176200150957604052565b9092506000526020918260002091836000935b838510620015c4575050505083010138808062001571565b805488860183015293019284908201620015ac565b92935050506020925060ff191682850152151560051b83010138808062001571565b919082519283825260005b84811062001628575050826000602080949584010152601f8019910116010190565b60208183018101518483018201520162001606565b9181601f840112156200166e5782359167ffffffffffffffff83116200166e57602083818601950101116200166e57565b600080fd5b908060209392818452848401376000828201840152601f01601f1916010190565b91908201809211620016a257565b634e487b7160e01b600052601160045260246000fd5b600260005414620016ca576002600055565b604051633ee5aeb560e01b8152600490fd5b600052600260205260406000206007810154600182015411156200172257600281015442106200171c57600301544211156200171757600390565b600190565b50600090565b5060029056fe608060405234620003945762000df0803803806200001d8162000399565b9283398101606082820312620003945781516001600160401b0391908281116200039457816200004f918501620003bf565b6020918285015184811162000394576040916200006e918701620003bf565b9401516001600160a01b039485821694918590036200039457825182811162000294576003918254916001958684811c9416801562000389575b8885101462000373578190601f948581116200031d575b508890858311600114620002b657600092620002aa575b505060001982861b1c191690861b1783555b8051938411620002945760049586548681811c9116801562000289575b82821014620002745783811162000229575b5080928511600114620001bb5750938394918492600095620001af575b50501b92600019911b1c19161781555b8115620001975750600580546001600160a01b03198116831790915560405192167f8be0079c531659141344cd1fd0a4f28419497f9722a3daafe3b4186f6b6457e0600080a36109be9081620004328239f35b602490600060405191631e4fbdf760e01b8352820152fd5b01519350388062000134565b92919084601f1981168860005285600020956000905b898383106200020e5750505010620001f3575b50505050811b01815562000144565b01519060f884600019921b161c1916905538808080620001e4565b858701518955909701969485019488935090810190620001d1565b87600052816000208480880160051c8201928489106200026a575b0160051c019087905b8281106200025d57505062000117565b600081550187906200024d565b9250819262000244565b602288634e487b7160e01b6000525260246000fd5b90607f169062000105565b634e487b7160e01b600052604160045260246000fd5b015190503880620000d6565b90889350601f19831691876000528a6000209260005b8c828210620003065750508411620002ed575b505050811b018355620000e8565b015160001983881b60f8161c19169055388080620002df565b8385015186558c97909501949384019301620002cc565b90915085600052886000208580850160051c8201928b861062000369575b918a91869594930160051c01915b82811062000359575050620000bf565b600081558594508a910162000349565b925081926200033b565b634e487b7160e01b600052602260045260246000fd5b93607f1693620000a8565b600080fd5b6040519190601f01601f191682016001600160401b038111838210176200029457604052565b919080601f84011215620003945782516001600160401b0381116200029457602090620003f5601f8201601f1916830162000399565b92818452828287010111620003945760005b8181106200041d57508260009394955001015290565b85810183015184820184015282016200040756fe6080604081815260048036101561001557600080fd5b600092833560e01c90816306fdde031461070f57508063095ea7b31461066657806318160ddd1461064757806323b872dd14610554578063313ce5671461053857806340c10f191461048957806370a0823114610452578063715018a6146103f25780638da5cb5b146103c957806395d89b41146102a95780639dc29fac146101cd578063a9059cbb1461019c578063dd62ed3e1461014f5763f2fde38b146100bd57600080fd5b3461014b57602036600319011261014b576100d661084d565b906100df61087e565b6001600160a01b03918216928315610135575050600554826bffffffffffffffffffffffff60a01b821617600555167f8be0079c531659141344cd1fd0a4f28419497f9722a3daafe3b4186f6b6457e08380a380f35b51631e4fbdf760e01b8152908101849052602490fd5b8280fd5b5050346101985780600319360112610198578060209261016d61084d565b610175610868565b6001600160a01b0391821683526001865283832091168252845220549051908152f35b5080fd5b5050346101985780600319360112610198576020906101c66101bc61084d565b60243590336108aa565b5160018152f35b508290346101985782600319360112610198576101e861084d565b90602435906101f561087e565b6001600160a01b0383169283156102925783855284602052858520549183831061025e5750508184957fddf252ad1be2c89b69c2b068fc378daa952ba7f163c4a11628f55a4df523b3ef936020938688528785520381872055816002540360025551908152a380f35b865163391434e360e21b81526001600160a01b03909216908201908152602081018390526040810184905281906060010390fd5b8551634b637e8f60e11b8152808301869052602490fd5b50919034610198578160031936011261019857805190828454600181811c908083169283156103bf575b60209384841081146103ac57838852908115610390575060011461033b575b505050829003601f01601f191682019267ffffffffffffffff8411838510176103285750829182610324925282610804565b0390f35b634e487b7160e01b815260418552602490fd5b8787529192508591837f8a35acfbc15ff81a39ae7d344fd709f28e8600b4aa8c65c6b64bfe7fe36bd19b5b83851061037c57505050508301013880806102f2565b805488860183015293019284908201610366565b60ff1916878501525050151560051b84010190503880806102f2565b634e487b7160e01b895260228a52602489fd5b91607f16916102d3565b50503461019857816003193601126101985760055490516001600160a01b039091168152602090f35b833461044f578060031936011261044f5761040b61087e565b600580546001600160a01b0319811690915581906001600160a01b03167f8be0079c531659141344cd1fd0a4f28419497f9722a3daafe3b4186f6b6457e08280a380f35b80fd5b5050346101985760203660031901126101985760209181906001600160a01b0361047a61084d565b16815280845220549051908152f35b50903461014b578060031936011261014b576104a361084d565b90602435916104b061087e565b6001600160a01b03169283156105235760025490838201809211610510575084927fddf252ad1be2c89b69c2b068fc378daa952ba7f163c4a11628f55a4df523b3ef9260209260025585855284835280852082815401905551908152a380f35b634e487b7160e01b865260119052602485fd5b84602492519163ec442f0560e01b8352820152fd5b5050346101985781600319360112610198576020905160128152f35b50823461044f57606036600319011261044f5761056f61084d565b610577610868565b916044359360018060a01b0383168083526001602052868320338452602052868320549160001983106105b3575b6020886101c68989896108aa565b86831061061b5781156106045733156105ed575082526001602090815286832033845281529186902090859003905582906101c6876105a5565b8751634a1406b160e11b8152908101849052602490fd5b875163e602df0560e01b8152908101849052602490fd5b8751637dc7a0d960e11b8152339181019182526020820193909352604081018790528291506060010390fd5b5050346101985781600319360112610198576020906002549051908152f35b503461014b578160031936011261014b5761067f61084d565b6024359033156106f8576001600160a01b03169182156106e157508083602095338152600187528181208582528752205582519081527f8c5be1e5ebec7d5bd14f71427d1e84f3dd0314c0f7b2291e5b200ac8c7c3b925843392a35160018152f35b8351634a1406b160e11b8152908101859052602490fd5b835163e602df0560e01b8152808401869052602490fd5b849150833461014b578260031936011261014b5782600354600181811c908083169283156107fa575b60209384841081146103ac578388529081156107de575060011461078857505050829003601f01601f191682019267ffffffffffffffff8411838510176103285750829182610324925282610804565b600387529192508591837fc2575a0e9e593c00f959f8c92f12db2869c3395a3b0502d05e2516446f71f85b5b8385106107ca57505050508301018580806102f2565b8054888601830152930192849082016107b4565b60ff1916878501525050151560051b84010190508580806102f2565b91607f1691610738565b6020808252825181830181905290939260005b82811061083957505060409293506000838284010152601f8019910116010190565b818101860151848201604001528501610817565b600435906001600160a01b038216820361086357565b600080fd5b602435906001600160a01b038216820361086357565b6005546001600160a01b0316330361089257565b60405163118cdaa760e01b8152336004820152602490fd5b916001600160a01b0380841692831561096f57169283156109565760009083825281602052604082205490838210610924575091604082827fddf252ad1be2c89b69c2b068fc378daa952ba7f163c4a11628f55a4df523b3ef958760209652828652038282205586815220818154019055604051908152a3565b60405163391434e360e21b81526001600160a01b03919091166004820152602481019190915260448101839052606490fd5b60405163ec442f0560e01b815260006004820152602490fd5b604051634b637e8f60e11b815260006004820152602490fdfea264697066735822122094055b52013e2a1f30a50b341fd37deb603dd7cac7436551cd3103acd4ff09b864736f6c63430008140033a2646970667358221220c81a4ea7d571f3662581ef43d42ea7e8bea425f5c193a3ab7a93b81e3f52a30864736f6c63430008140033",
  "linkReferences": {},
  "deployedLinkReferences": {}
}